:020000040000FA
:100000000C9478000C94A0000C94A0000C94A00018
:100010000C94A0000C94A0000C94A0000C94A000E0
:100020000C94A0000C94A0000C94A0000C94A000D0
:100030000C94A0000C94A0000C94A0000C94A000C0
:100040000C940C080C94A0000C94DA070C94B407E0
:100050000C94A0000C94A0000C94A0000C94A000A0
:100060000C94A0000C94A0000000000024002700C5
:100070002A004448547878207465737421004661DE
:10008000696C656420746F20726561642066726FAC
:100090006D204448542073656E736F722100000018
:1000A0000000250028002B000000000800020100CD
:1000B0000003040700000000000000000000000032
:1000C000230026002900040404040404040402029A
:1000D00002020202030303030303010204081020C7
:1000E0004080010204081020010204081020560874
:1000F00011241FBECFEFD8E0DEBFCDBF11E0A0E0DE
:10010000B1E0E4E5F9E102C005900D92A232B10739
:10011000D9F721E0A2E2B1E001C01D92AB3DB207E8
:10012000E1F710E0C8E7D0E004C02197FE010E948B
:10013000A20CC737D107C9F70E94A3080C94A80CDA
:100140000C940000CF92DF92EF92FF92CF93DF9357
:10015000C82F8091CE018C3009F45EC038F48B300A
:10016000F1F060E070E080EC9FE74FC08551823095
:10017000C0F7D091CA016D2F70E0762F66276627F1
:100180007F778091CB01682B90E080E00E94FC0A91
:100190002DEC3CEC4CEC5DE30E94B30B59C060913C
:1001A000CA0170E090E080E00E94FC0A6B017C01D3
:1001B000D091CB01D7FF0AC0AC019B0160E070E099
:1001C00080E89FEB0E94E9096B017C01DF706D2FD5
:1001D00070E090E080E00E94FE0A2DEC3CEC4CECDC
:1001E0005DE30E94B30BA70196010E94EA09CC23AC
:1001F00061F026E636E646EE5FE30E94B30B20E0B0
:1002000030E040E052E40E94EA09DF91CF91FF9094
:10021000EF90DF90CF900895D091CA016D2F70E0DC
:1002200090E080E00E94FC0A6B017C016091CB01B0
:100230006F7070E090E080E00E94FE0A2DEC3CECD4
:100240004CEC5DE30E94B30BA70196010E94EA0902
:10025000D7FFCDCF9058CBCFCF92DF92EF92FF92C6
:10026000CF93DF93B091CF01A0E08111AB2F8091AC
:10027000D00190E0880F991FAC0144545F4FC090AB
:10028000D501D090D601E090D701F090D80130E0B0
:1002900020E0FA01C591D491E881B90190E080E0B5
:1002A000EB23EA130AC02F5F3F4F6C157D058E05C7
:1002B0009F0578F36FEF7FEFCB01DF91CF91FF9038
:1002C000EF90DF90CF900895AF92BF92CF92DF92E0
:1002D000EF92FF920F931F93CF93DF936C017B01FB
:1002E0008B01040F151FEB015E01AE18BF08C0178C
:1002F000D10759F06991D601ED91FC910190F081FF
:10030000E02DC6010995892B79F7C501DF91CF91C1
:100310001F910F91FF90EF90DF90CF90BF90AF9023
:100320000895FC01538D448D252F30E0842F90E0FB
:10033000821B930B541710F0CF96089501970895E0
:10034000FC01918D828D981761F0A28DAE0FBF2FA9
:10035000B11D5D968C91928D9F5F9F73928F90E0FF
:1003600008958FEF9FEF0895FC01918D828D98176E
:1003700031F0828DE80FF11D858D90E008958FEFAB
:100380009FEF0895FC01918D228D892F90E0805C74
:100390009F4F821B91098F73992708958BE291E0FB
:1003A0000E94C20121E0892B09F420E0822F0895E8
:1003B00080E090E0892B29F00E94CE0181110C94FD
:1003C00000000895FC01A48DA80FB92FB11DA35AF8
:1003D000BF4F2C91848D90E001968F739927848F65
:1003E000A689B7892C93A089B1898C918370806488
:1003F0008C93938D848D981306C00288F389E02D29
:1004000080818F7D80830895EF92FF920F931F93D9
:10041000CF93DF93EC0181E0888F9B8D8C8D9813B7
:100420001AC0E889F989808185FF15C09FB7F894C3
:10043000EE89FF896083E889F9898081837080640F
:1004400080839FBF81E090E0DF91CF911F910F915A
:10045000FF90EF900895F62E0B8D10E00F5F1F4F69
:100460000F731127E02E8C8D8E110CC00FB607FC78
:10047000FACFE889F989808185FFF5CFCE010E9406
:10048000E201F1CFEB8DEC0FFD2FF11DE35AFF4F91
:10049000F0829FB7F8940B8FEA89FB898081806294
:1004A000CFCF0F931F93CF93DF938C01D0E0C0E0A9
:1004B000F801EC0FFD1F6491662341F08BE291E09F
:1004C0000E940402892B11F02196F2CFCE01DF9118
:1004D000CF911F910F910895CF93DF93EC01888DF9
:1004E0008823B9F0AA89BB89E889F9898C9185FDAF
:1004F00003C0808186FD0DC00FB607FCF7CF8C913D
:1005000085FFF2CF808185FFEDCFCE010E94E20111
:10051000E9CFDF91CF910895CF93DF9390E0FC0175
:10052000E652FF4F24918A539F4FFC018491882308
:10053000D1F090E0880F991FFC01E859FF4FA59179
:10054000B491FC01E256FF4FC591D491623071F431
:100550009FB7F8943C91822F809583238C93E881F8
:100560002E2B28839FBFDF91CF9108958FB7F894EA
:10057000EC912E2B2C938FBFF6CF3FB7F894809140
:10058000230190912401A0912501B091260126B567
:10059000A89B05C02F3F19F00196A11DB11D3FBFBB
:1005A000BA2FA92F982F8827BC01CD01620F711D8A
:1005B000811D911D42E0660F771F881F991F4A9584
:1005C000D1F708958F929F92AF92BF92CF92DF9210
:1005D000EF92FF924B015C010E94BD026B017C0116
:1005E0000E94BD026C197D098E099F09683E734007
:1005F00081059105A8F321E0821A9108A108B108AC
:1006000088EEC80E83E0D81EE11CF11C8114910411
:10061000A104B10429F7FF90EF90DF90CF90BF9035
:10062000AF909F908F9008958F929F92AF92BF92BC
:10063000EF92FF920F931F93CF93DF93CDB7DEB767
:10064000C054D1400FB6F894DEBF0FBECDBF2FB758
:10065000F8948091270190912801A0912901B091EF
:100660002A012FBF4091D1015091D2016091D30155
:100670007091D4018C019D01041B150B260B370BC7
:10068000B901A801403D574061057105A0F4809172
:10069000D901C05CDE4F0FB6F894DEBF0FBECDBFF0
:1006A000DF91CF911F910F91FF90EF90BF90AF908E
:1006B0009F908F9008958093D1019093D201A09341
:1006C000D301B093D4011092CC011092CB011092BF
:1006D000CA011092C9011092C80162E08091CD0157
:1006E0000E948C0261E070E080E090E00E94E202F3
:1006F00061E08091CD010E948C028091CD0190E05B
:10070000FC01E855FF4F2491FC01E652FF4F349164
:10071000FC01EA53FF4FE491EE23D9F0222359F074
:10072000233009F44BC008F03EC0213009F44CC01E
:10073000223009F44DC0F0E0EE0FFF1FE256FF4FEC
:10074000A591B4918FB7F894EC9130953E233C93EA
:100750008FBF8091CE018551823008F046C08BE278
:1007600091E10197F1F762E08091CD010E948C0246
:100770008091DA0190E08230910538F0880F991F5E
:10078000880F991F05970197F1F7F89480E00E9470
:100790002C016F3F7F4F8F4F9F4F71F51092D90102
:1007A000789480E076CF2730B1F02830D1F0243033
:1007B00009F0C1CF809180008F7D03C080918000BF
:1007C0008F7780938000B7CF84B58F7784BDB3CF08
:1007D00084B58F7DFBCF8091B0008F778093B00080
:1007E000AACF8091B0008F7DF9CF64E170E080E006
:1007F00090E00E94E202B7CF81E00E942C016F3F9F
:100800007F4F8F4F9F4F51F2CE0101967C015E01C9
:100810009FEBA91A9EEFB90A870180E00E942C0184
:10082000F801608371838283938381E00E942C01AD
:10083000F8016483758386839783085F1F4FA01632
:10084000B10659F7789430E020E0F701808091807C
:10085000A280B3804481558166817781FFEF8F1636
:100860009F06AF06BF0631F04F3F0FEF50076007FE
:10087000700719F41092D90194CFF90183E0F5952E
:10088000E7958A95E1F7E853FE4F8081880F84163B
:100890009506A606B70618F180832F5F3F4F18E034
:1008A000E10EF11C2832310581F64091CC012091F6
:1008B000C8018091C901280F3327331F8091CA01D5
:1008C000280F311D8091CB01820F932F911D992705
:1008D0004817190679F681E08093D901DACE816054
:1008E000DBCFFC0101900020E9F73197AF01481BF5
:1008F000590BBC018BE291E00C9464018F929F92A2
:10090000AF92BF920F931F93CF93DF93CDB7DEB714
:10091000A1970FB6F894DEBF0FBECDBF19A242302B
:1009200008F44AE08E010F5D1F4F842E912CB12CEC
:10093000A12CA50194010E94800CE62FB901CA01E7
:10094000EA30F4F4E05DD801EE938D01232B242BE3
:10095000252B79F790E080E0109719F0CD010E94E7
:100960007104A1960FB6F894DEBF0FBECDBFDF9124
:10097000CF911F910F91BF90AF909F908F9008954E
:10098000E95CE1CF4F925F926F927F928F929F923C
:10099000AF92BF92CF92DF92EF92FF920F931F938D
:1009A000CF936B017C01742EAC019B010E94660CFD
:1009B000882399F082E191E0CF911F910F91FF90F0
:1009C000EF90DF90CF90BF90AF909F908F907F90EF
:1009D0006F905F904F900C94710446015701E8941A
:1009E000B7F82FEF3FEF4FE75FE7C501B4010E9473
:1009F000660C81110DC02FEF3FEF4FE75FE7C50198
:100A0000B4010E94560A18161CF486E191E0D4CF76
:100A10002FEF3FEF4FE75FE4C701B6010E94AE0B37
:100A200018161CF48AE191E0C7CF2FEF3FEF4FE794
:100A30005FECC701B6010E94560A87FDF3CF20E0A4
:100A400030E0A901C701B6010E94560A10E000E09B
:100A500087FF0AC06DE28BE291E00E9404028C01E4
:100A6000F7FAF094F7F8F094C0E060E070E080E00E
:100A70009FE37C1641F020E030E040E251E40E9428
:100A80005B0ACF5FF6CFA70196010E94EA092B010E
:100A90003C010E94CD0A4B015C014AE00E947E04A9
:100AA0007C01E00EF11ECC23C1F1C501B4010E940E
:100AB000FC0A9B01AC01C301B2010E94E9094B0190
:100AC0005C016EE28BE291E00E940402E80EF91EE6
:100AD000C15018F120E030E040E251E4C501B4011A
:100AE0000E94B30B2B013C010E94CD0A4B01B12C9B
:100AF000A12C4AE0C501B4010E947E04E80EF91E53
:100B0000C501B4010E94FC0A9B01AC01C301B20102
:100B10000E94E9094B015C01DBCFC701CF911F9116
:100B20000F91FF90EF90DF90CF90BF90AF909F908C
:100B30008F907F906F905F904F9008954F925F924B
:100B40006F927F928F929F92AF92BF92CF92DF92DD
:100B5000EF92FF920F93CF93DF93CDB7DEB7289735
:100B60000FB6F894DEBF0FBECDBF6B017C0149010B
:100B70005A0101110EC026E636E646EE5FE30E94FA
:100B8000B30B20E030E040E052E40E94EA096B0140
:100B90007C0120E030E048E852E4C701B6010E9441
:100BA000E9092AE939E949E95FE30E94B30B2B011E
:100BB0003C0120E030E044E752E4C701B6010E9466
:100BC000EA099B01AC01C301B2010E94EA092B01B1
:100BD0003C0122E133E840EC5DE3C501B4010E9431
:100BE000B30B9B01AC01C301B2010E94EA0920E0F2
:100BF00030E040E05FE30E94B30B2B013C0120E0BA
:100C000030E04EE952E40E94AE0B18160CF023C1FE
:100C1000A7019601C701B6010E94B30B2B013C014D
:100C2000A5019401C501B4010E94B30B6D837E83BD
:100C30008F83988721E133E243E050E4C701B60196
:100C40000E94B30B29E134E849E252E40E94E90929
:100C500069837A838B839C8326E13BE442E251E4FF
:100C6000C501B4010E94B30B9B01AC0169817A817B
:100C70008B819C810E94EA0969837A838B839C83A0
:100C800028E436E246E65EEBC701B6010E94B30BEC
:100C9000A50194010E94B30B9B01AC0169817A818B
:100CA0008B819C810E94EA0969837A838B839C8370
:100CB00020EE3FE040EE5BEBC301B2010E94B30BBC
:100CC0009B01AC0169817A818B819C810E94EA0938
:100CD00069837A838B839C8328EF37E840E65DEB5A
:100CE0006D817E818F8198850E94B30B9B01AC0141
:100CF00069817A818B819C810E94EA0969837A8368
:100D00008B839C832CEA3DE041EA5AE3C301B201A4
:100D10000E94B30BA50194010E94B30B9B01AC018F
:100D200069817A818B819C810E94EA0969837A8337
:100D30008B839C8328EC3FE84FE55AE3C701B6015B
:100D40000E94B30B2D813E814F8158850E94B30BC9
:100D50009B01AC0169817A818B819C810E94EA09A7
:100D600069837A838B839C8321EF3BE845E056EBD4
:100D7000C301B2010E94B30B2D813E814F81588582
:100D80000E94B30B9B01AC0169817A818B819C81AC
:100D90000E94EA092B013C0120E030E040E551E4EB
:100DA000C501B4010E94560A87FF88C020E030E0E8
:100DB00040EA52E4C701B6010E94AE0B87FD7EC037
:100DC00020E030E040EE52E4C701B6010E94560A2E
:100DD00018160CF4BDC0A501940160E070E080E538
:100DE00091E40E94E90920E030E040E85EE30E94DF
:100DF000B30B4B015C0120E030E04EEB52E4C70145
:100E0000B6010E94E9096B017C0120E030E0A901F4
:100E10000E94AE0B18160CF048C0A701960160E0C6
:100E200070E088E891E40E94E9092EE33DEE40E796
:100E30005DE30E94B30B0E94260C9B01AC01C5012F
:100E4000B4010E94B30B9B01AC01C301B2010E942B
:100E5000E9092B013C01011110C020E030E040E025
:100E600052E4C301B2010E94E90926E838E34EE0EA
:100E70005FE30E94B30B2B013C01C301B201289632
:100E80000FB6F894DEBF0FBECDBFDF91CF910F91AB
:100E9000FF90EF90DF90CF90BF90AF909F908F909A
:100EA0007F906F905F904F90089520E030E048E889
:100EB00051E4C701B6010E94EA09B7CF20E030E053
:100EC0004AEA52E4C501B4010E94AE0B18161CF6A2
:100ED00020E030E040EA52E4C701B6010E94AE0BC8
:100EE00087FDB9CF20E030E04EEA52E4C701B601F9
:100EF0000E94560A18160CF4AECF20E030E04AEA01
:100F000052E4C501B4010E94E9092DEC3CEC4CEC23
:100F10005DE30E94B30B4B015C01A701960160E009
:100F200070E08EEA92E40E94E9092DEC3CEC4CE47E
:100F30005EE30E94B30B9B01AC01C501B4010E94AA
:100F4000B30B9B01AC01C301B2010E94EA0981CF3E
:100F500020E030E04AEA52E4C501B4010E94AE0B41
:100F600018160CF4BFCF77CF1F920F920FB60F92C7
:100F700011242F933F934F935F936F937F938F939E
:100F80009F93AF93BF93EF93FF938BE291E00E9407
:100F9000E201FF91EF91BF91AF919F918F917F916E
:100FA0006F915F914F913F912F910F900FBE0F90D6
:100FB0001F9018951F920F920FB60F9211242F9326
:100FC0008F939F93EF93FF93E0913B01F0913C014E
:100FD0008081E0914101F091420182FD1BC090812E
:100FE000809144018F5F8F7320914501821741F0FA
:100FF000E0914401F0E0E55DFE4F958F8093440160
:10100000FF91EF919F918F912F910F900FBE0F90B5
:101010001F9018958081F4CF1F920F920FB60F92F8
:1010200011242F933F938F939F93AF93BF938091FE
:10103000270190912801A0912901B0912A013091B6
:10104000220123E0230F2D3758F50196A11DB11D74
:10105000209322018093270190932801A0932901D6
:10106000B0932A018091230190912401A091250140
:10107000B09126010196A11DB11D8093230190938B
:101080002401A0932501B0932601BF91AF919F91B8
:101090008F913F912F910F900FBE0F901F90189539
:1010A00026E8230F0296A11DB11DD2CFEBE2F1E09D
:1010B0001382128288EE93E0A0E0B0E084839583EF
:1010C000A683B78384E091E09183808385EC90E0F0
:1010D0009587848784EC90E09787868780EC90E002
:1010E000918B808B81EC90E0938B828B82EC90E0F3
:1010F000958B848B86EC90E0978B868B118E128E6D
:10110000138E148EA8ECB1E082E015968C9315979F
:101110008BE016968C931697ECEDF0E0E491179621
:10112000EC931797E8ECF0E0E4911896EC9318979D
:1011300040E85EE360E070E01D964D935D936D9333
:101140007C9350970895789484B5826084BD84B56B
:10115000816084BD85B5826085BD85B5816085BDB2
:1011600080916E00816080936E001092810080916A
:1011700081008260809381008091810081608093F2
:101180008100809180008160809380008091B10017
:1011900084608093B1008091B00081608093B00042
:1011A00080917A00846080937A0080917A008260D6
:1011B00080937A0080917A00816080937A00809198
:1011C0007A00806880937A001092C100E0913B0120
:1011D000F0913C0182E08083E0913701F091380189
:1011E0001082E0913901F0913A018FEC80831092E6
:1011F0004301E0913F01F091400186E08083E0915E
:101200003D01F0913E01808180618083E0913D014C
:10121000F0913E01808188608083E0913D01F091F2
:101220003E01808180688083E0913D01F0913E0124
:1012300080818F7D808382E790E00E9451028EE161
:1012400091E00E94710462E08091CD010E948C02C5
:101250002FB7F8948091270190912801A09129013E
:10126000B0912A012FBF805D9740A109B1098093F9
:10127000D1019093D201A093D301B093D40187E31D
:101280008093DA01C0E0D0E064EF71E080E090E0AC
:101290000E94E2020E941403882351F08091CE0143
:1012A0008B3030F08D3058F08551823008F469C0B1
:1012B000C12CD12C20ECE22E2FE7F22E1EC0609123
:1012C000C90170E090E080E00E94FE0A2DEC3CEC49
:1012D0004CEC5DE30E94B30B6B017C016091C80193
:1012E00070E090E080E00E94FE0A9B01AC01C70123
:1012F000B6010E94EA096B017C010E941403812C53
:10130000912C90ECA92E9FE7B92E882329F080E03C
:101310000E94A2004B015C010E941403882309F47F
:1013200042C081E00E94A2002B013C01A70196016E
:10133000C701B6010E94660C811110C0A50194017D
:10134000C501B4010E94660C811108C0A30192017D
:10135000C301B2010E94660C882361F18EE790E020
:101360000E9451028EE191E00E947104209709F4DD
:101370008BCF0E94CE01882309F486CF0E94000003
:1013800083CF6091C8017091C901762767277627BE
:1013900090E080E00E94FC0A2DEC3CEC4CEC5DE31C
:1013A0000E94B30BA8CF412C512C80EC682E8FE704
:1013B000782EBCCF42E0C501B4010E94C2048EE188
:1013C00091E00E94710442E0C701B6010E94C2048C
:1013D000C9CF5058BB27AA270E94010A0C94740B4E
:1013E0000E94660B38F00E946D0B20F039F49F3F8D
:1013F00019F426F40C94630B0EF4E095E7FB0C94BF
:101400005D0BE92F0E94850B58F3BA17620773072B
:101410008407950720F079F4A6F50C94A70B0EF439
:10142000E0950B2EBA2FA02D0B01B90190010C01F4
:10143000CA01A0011124FF27591B99F0593F50F40C
:10144000503E68F11A16F040A22F232F342F442764
:10145000585FF3CF469537952795A795F04053955C
:10146000C9F77EF41F16BA0B620B730B840BBAF02C
:101470009150A1F0FF0FBB1F661F771F881FC2F797
:101480000EC0BA0F621F731F841F48F487957795AB
:101490006795B795F7959E3F08F0B0CF9395880F65
:1014A00008F09927EE0F9795879508950E94390BBC
:1014B00008F481E008950E946F0A0C94740B0E9456
:1014C0006D0B58F00E94660B40F029F45F3F29F045
:1014D0000C945D0B51110C94A80B0C94630B0E949F
:1014E000850B68F39923B1F3552391F3951B550BA5
:1014F000BB27AA2762177307840738F09F5F5F4FE7
:10150000220F331F441FAA1FA9F335D00E2E3AF025
:10151000E0E832D091505040E695001CCAF72BD03D
:10152000FE2F29D0660F771F881FBB1F261737078E
:101530004807AB07B0E809F0BB0B802DBF01FF27C0
:1015400093585F4F3AF09E3F510578F00C945D0B35
:101550000C94A80B5F3FE4F3983ED4F386957795FF
:101560006795B795F7959F5FC9F7880F911D969579
:10157000879597F90895E1E0660F771F881FBB1FD5
:10158000621773078407BA0720F0621B730B840B82
:10159000BA0BEE1F88F7E09508950E948D0B88F036
:1015A0009F5798F0B92F9927B751B0F0E1F0660F27
:1015B000771F881F991F1AF0BA95C9F714C0B13068
:1015C00091F00E94A70BB1E008950C94A70B672F30
:1015D000782F8827B85F39F0B93FCCF38695779597
:1015E0006795B395D9F73EF4909580957095619580
:1015F0007F4F8F4F9F4F0895E89409C097FB3EF4AB
:1016000090958095709561957F4F8F4F9F4F99234F
:10161000A9F0F92F96E9BB279395F69587957795CD
:101620006795B795F111F8CFFAF4BB0F11F460FF8D
:101630001BC06F5F7F4F8F4F9F4F16C0882311F0E5
:1016400096E911C0772321F09EE8872F762F05C0F9
:10165000662371F096E8862F70E060E02AF09A9594
:10166000660F771F881FDAF7880F9695879597F989
:101670000895990F0008550FAA0BE0E8FEEF161623
:101680001706E807F907C0F012161306E407F50776
:1016900098F0621B730B840B950B39F40A2661F0EA
:1016A000232B242B252B21F408950A2609F4A1408D
:1016B000A6958FEF811D811D089597F99F6780E89A
:1016C00070E060E008959FEF80EC089500240A9494
:1016D0001616170618060906089500240A9412160D
:1016E0001306140605060895092E0394000C11F440
:1016F000882352F0BB0F40F4BF2B11F460FF04C0ED
:101700006F5F7F4F8F4F9F4F089557FD9058440F45
:10171000551F59F05F3F71F04795880F97FB991F50
:1017200061F09F3F79F0879508951216130614060D
:10173000551FF2CF4695F1DF08C01616170618069A
:10174000991FF1CF86957105610508940895E89475
:10175000BB2766277727CB0197F908950E94390B9D
:1017600008F48FEF08950E94C60B0C94740B0E942E
:10177000660B38F00E946D0B20F0952311F00C944D
:101780005D0B0C94630B11240C94A80B0E94850B29
:1017900070F3959FC1F3950F50E0551F629FF001C4
:1017A000729FBB27F00DB11D639FAA27F00DB11DDD
:1017B000AA1F649F6627B00DA11D661F829F222766
:1017C000B00DA11D621F739FB00DA11D621F839FED
:1017D000A00D611D221F749F3327A00D611D231FC3
:1017E000849F600D211D822F762F6A2F11249F5711
:1017F00050409AF0F1F088234AF0EE0FFF1FBB1F14
:10180000661F771F881F91505040A9F79E3F5105D2
:1018100080F00C945D0B0C94A80B5F3FE4F3983EB2
:10182000D4F3869577956795B795F795E7959F5F7C
:10183000C1F7FE2B880F911D9695879597F908950E
:1018400019F416F40C94630B0C946B0C0E948D0B22
:10185000B8F39923C9F3B6F39F57550B87FF0E943E
:10186000790C0024A0E640EA90018058569597959F
:1018700028F4805C660F771F881F20F02617370733
:10188000480730F4621B730B840B202931294A2B43
:10189000A69517940794202531254A2758F7660FF7
:1018A000771F881F20F026173707480730F4620B90
:1018B000730B840B200D311D411DA09581F7B901DB
:1018C000842F9158880F9695879508950E94390B1B
:1018D000880B990B08959F3F31F0915020F4879524
:1018E00077956795B795880F911D9695879597F988
:1018F000089591505040660F771F881FD2F70895C2
:10190000A1E21A2EAA1BBB1BFD010DC0AA1FBB1F03
:10191000EE1FFF1FA217B307E407F50720F0A21B75
:10192000B30BE40BF50B661F771F881F991F1A94E2
:1019300069F760957095809590959B01AC01BD010C
:10194000CF010895EE0FFF1F0590F491E02D09944B
:10195000F894FFCF000000000402640191016C02C2
:10196000C201A001B4016E616E00696E66006F76FF
:0619700066000D0A0000F4
:107E0000112484B714BE81FFF0D085E080938100F7
:107E100082E08093C00088E18093C10086E0809377
:107E2000C20080E18093C4008EE0C9D0259A86E02C
:107E300020E33CEF91E0309385002093840096BBD3
:107E4000B09BFECF1D9AA8958150A9F7CC24DD24C4
:107E500088248394B5E0AB2EA1E19A2EF3E0BF2EE7
:107E6000A2D0813461F49FD0082FAFD0023811F036
:107E7000013811F484E001C083E08DD089C08234E0
:107E800011F484E103C0853419F485E0A6D080C0E4
:107E9000853579F488D0E82EFF2485D0082F10E0AE
:107EA000102F00270E291F29000F111F8ED06801E7
:107EB0006FC0863521F484E090D080E0DECF843638
:107EC00009F040C070D06FD0082F6DD080E0C81688
:107ED00080E7D80618F4F601B7BEE895C0E0D1E017
:107EE00062D089930C17E1F7F0E0CF16F0E7DF06D8
:107EF00018F0F601B7BEE89568D007B600FCFDCFD4
:107F0000A601A0E0B1E02C9130E011968C91119780
:107F100090E0982F8827822B932B1296FA010C0160
:107F200087BEE89511244E5F5F4FF1E0A038BF0790
:107F300051F7F601A7BEE89507B600FCFDCF97BE46
:107F4000E89526C08437B1F42ED02DD0F82E2BD052
:107F50003CD0F601EF2C8F010F5F1F4F84911BD097
:107F6000EA94F801C1F70894C11CD11CFA94CF0C13
:107F7000D11C0EC0853739F428D08EE10CD085E9AC
:107F80000AD08FE07ACF813511F488E018D01DD067
:107F900080E101D065CF982F8091C00085FFFCCF94
:107FA0009093C60008958091C00087FFFCCF809118
:107FB000C00084FD01C0A8958091C6000895E0E648
:107FC000F0E098E1908380830895EDDF803219F02E
:107FD00088E0F5DFFFCF84E1DECF1F93182FE3DFCA
:107FE0001150E9F7F2DF1F91089580E0E8DFEE27F6
:047FF000FF270994CA
:027FFE00040479
:00000001FF
